{
  "contractName": "Donation",
  "abi": [
    {
      "inputs": [],
      "stateMutability": "nonpayable",
      "type": "constructor"
    },
    {
      "anonymous": false,
      "inputs": [
        {
          "indexed": true,
          "internalType": "address",
          "name": "donor",
          "type": "address"
        },
        {
          "indexed": false,
          "internalType": "uint256",
          "name": "amount",
          "type": "uint256"
        }
      ],
      "name": "Donated",
      "type": "event"
    },
    {
      "anonymous": false,
      "inputs": [
        {
          "indexed": false,
          "internalType": "uint256",
          "name": "amount",
          "type": "uint256"
        }
      ],
      "name": "TransferredToRecipient",
      "type": "event"
    },
    {
      "inputs": [
        {
          "internalType": "uint256",
          "name": "",
          "type": "uint256"
        }
      ],
      "name": "donors",
      "outputs": [
        {
          "internalType": "address",
          "name": "addr",
          "type": "address"
        },
        {
          "internalType": "uint256",
          "name": "amount",
          "type": "uint256"
        }
      ],
      "stateMutability": "view",
      "type": "function",
      "constant": true
    },
    {
      "inputs": [],
      "name": "owner",
      "outputs": [
        {
          "internalType": "address",
          "name": "",
          "type": "address"
        }
      ],
      "stateMutability": "view",
      "type": "function",
      "constant": true
    },
    {
      "inputs": [],
      "name": "recipient",
      "outputs": [
        {
          "internalType": "address",
          "name": "",
          "type": "address"
        }
      ],
      "stateMutability": "view",
      "type": "function",
      "constant": true
    },
    {
      "inputs": [],
      "name": "threshold",
      "outputs": [
        {
          "internalType": "uint256",
          "name": "",
          "type": "uint256"
        }
      ],
      "stateMutability": "view",
      "type": "function",
      "constant": true
    },
    {
      "inputs": [],
      "name": "totalDonations",
      "outputs": [
        {
          "internalType": "uint256",
          "name": "",
          "type": "uint256"
        }
      ],
      "stateMutability": "view",
      "type": "function",
      "constant": true
    },
    {
      "inputs": [],
      "name": "donate",
      "outputs": [],
      "stateMutability": "payable",
      "type": "function",
      "payable": true
    },
    {
      "inputs": [],
      "name": "getDonorsCount",
      "outputs": [
        {
          "internalType": "uint256",
          "name": "",
          "type": "uint256"
        }
      ],
      "stateMutability": "view",
      "type": "function",
      "constant": true
    },
    {
      "inputs": [
        {
          "internalType": "uint256",
          "name": "index",
          "type": "uint256"
        }
      ],
      "name": "getDonor",
      "outputs": [
        {
          "internalType": "address",
          "name": "",
          "type": "address"
        },
        {
          "internalType": "uint256",
          "name": "",
          "type": "uint256"
        }
      ],
      "stateMutability": "view",
      "type": "function",
      "constant": true
    }
  ],
  "bytecode": "0x608060405234801561001057600080fd5b50336000806101000a81548173ffffffffffffffffffffffffffffffffffffffff021916908373ffffffffffffffffffffffffffffffffffffffff16021790555061098a806100606000396000f3fe60806040526004361061007b5760003560e01c806366d003ac1161004e57806366d003ac146101525780638da5cb5b1461017d578063de2ed893146101a8578063ed88c68e146101d35761007b565b80633f85b8871461008057806342cde4e8146100ab5780634abfa163146100d65780636136a90614610114575b600080fd5b34801561008c57600080fd5b506100956101dd565b6040516100a29190610603565b60405180910390f35b3480156100b757600080fd5b506100c06101ea565b6040516100cd9190610603565b60405180910390f35b3480156100e257600080fd5b506100fd60048036038101906100f8919061064f565b6101f6565b60405161010b9291906106bd565b60405180910390f35b34801561012057600080fd5b5061013b6004803603810190610136919061064f565b61024a565b6040516101499291906106bd565b60405180910390f35b34801561015e57600080fd5b50610167610339565b60405161017491906106e6565b60405180910390f35b34801561018957600080fd5b50610192610351565b60405161019f91906106e6565b60405180910390f35b3480156101b457600080fd5b506101bd610375565b6040516101ca9190610603565b60405180910390f35b6101db61037b565b005b6000600280549050905090565b678ac7230489e8000081565b6002818154811061020657600080fd5b90600052602060002090600202016000915090508060000160009054906101000a900473ffffffffffffffffffffffffffffffffffffffff16908060010154905082565b6000806002805490508310610294576040517f08c379a000000000000000000000000000000000000000000000000000000000815260040161028b9061075e565b60405180910390fd5b6000600284815481106102aa576102a961077e565b5b90600052602060002090600202016040518060400160405290816000820160009054906101000a900473ffffffffffffffffffffffffffffffffffffffff1673ffffffffffffffffffffffffffffffffffffffff1673ffffffffffffffffffffffffffffffffffffffff1681526020016001820154815250509050806000015181602001519250925050915091565b73839c52d46ed76cfdca1c06f8d4fbb5a67f0eebf281565b60008054906101000a900473ffffffffffffffffffffffffffffffffffffffff1681565b60015481565b600034116103be576040517f08c379a00000000000000000000000000000000000000000000000000000000081526004016103b5906107f9565b60405180910390fd5b600260405180604001604052803373ffffffffffffffffffffffffffffffffffffffff16815260200134815250908060018154018082558091505060019003906000526020600020906002020160009091909190915060008201518160000160006101000a81548173ffffffffffffffffffffffffffffffffffffffff021916908373ffffffffffffffffffffffffffffffffffffffff16021790555060208201518160010155505034600160008282546104799190610848565b925050819055503373ffffffffffffffffffffffffffffffffffffffff167f2a01595cddf097c90216094025db714da3f4e5bd8877b56ba86a24ecead8e543346040516104c69190610603565b60405180910390a2678ac7230489e80000600154106105e857600060015490506000600181905550600073839c52d46ed76cfdca1c06f8d4fbb5a67f0eebf273ffffffffffffffffffffffffffffffffffffffff1682604051610528906108ad565b60006040518083038185875af1925050503d8060008114610565576040519150601f19603f3d011682016040523d82523d6000602084013e61056a565b606091505b50509050806105ae576040517f08c379a00000000000000000000000000000000000000000000000000000000081526004016105a590610934565b60405180910390fd5b7fe835b41713175b6f30d9fdc3ebcdfbf2bf1df2ba432dfc04574bfa089579fe01826040516105dd9190610603565b60405180910390a150505b565b6000819050919050565b6105fd816105ea565b82525050565b600060208201905061061860008301846105f4565b92915050565b600080fd5b61062c816105ea565b811461063757600080fd5b50565b60008135905061064981610623565b92915050565b6000602082840312156106655761066461061e565b5b60006106738482850161063a565b91505092915050565b600073ffffffffffffffffffffffffffffffffffffffff82169050919050565b60006106a78261067c565b9050919050565b6106b78161069c565b82525050565b60006040820190506106d260008301856106ae565b6106df60208301846105f4565b9392505050565b60006020820190506106fb60008301846106ae565b92915050565b600082825260208201905092915050565b7f496e646578206f7574206f6620626f756e647300000000000000000000000000600082015250565b6000610748601383610701565b915061075382610712565b602082019050919050565b600060208201905081810360008301526107778161073b565b9050919050565b7f4e487b7100000000000000000000000000000000000000000000000000000000600052603260045260246000fd5b7f446f6e6174696f6e206d7573742062652067726561746572207468616e203000600082015250565b60006107e3601f83610701565b91506107ee826107ad565b602082019050919050565b60006020820190508181036000830152610812816107d6565b9050919050565b7f4e487b7100000000000000000000000000000000000000000000000000000000600052601160045260246000fd5b6000610853826105ea565b915061085e836105ea565b925082820190508082111561087657610875610819565b5b92915050565b600081905092915050565b50565b600061089760008361087c565b91506108a282610887565b600082019050919050565b60006108b88261088a565b9150819050919050565b7f4661696c656420746f2073656e6420457468657220746f20726563697069656e60008201527f7400000000000000000000000000000000000000000000000000000000000000602082015250565b600061091e602183610701565b9150610929826108c2565b604082019050919050565b6000602082019050818103600083015261094d81610911565b905091905056fea2646970667358221220c5983e454f8e8cd7bd427f10876ad71254ee3ef0700d27785485452f7851db4764736f6c63430008120033",
  "immutableReferences": {},
  "source": "// SPDX-License-Identifier: MIT\npragma solidity >=0.4.22 <0.9.0;\n\ncontract Donation {\n    address public owner;\n    address public constant recipient = 0x839C52D46Ed76CfdCa1c06f8D4fBB5A67f0eEbF2;\n\n    uint public totalDonations;\n    uint public constant threshold = 10 ether;\n\n    struct Donor {\n        address addr;\n        uint amount;\n    }\n\n    Donor[] public donors;\n\n    event Donated(address indexed donor, uint amount);\n    event TransferredToRecipient(uint amount);\n\n    constructor() {\n        owner = msg.sender;\n    }\n\n    function donate() external payable {\n        require(msg.value > 0, \"Donation must be greater than 0\");\n\n        donors.push(Donor(msg.sender, msg.value));\n        totalDonations += msg.value;\n\n        emit Donated(msg.sender, msg.value);\n\n        // Jika sudah mencapai 10 ETH, langsung transfer ke wallet tujuan\n        if (totalDonations >= threshold) {\n            uint amountToSend = totalDonations;\n            totalDonations = 0;\n\n            (bool sent, ) = payable(recipient).call{value: amountToSend}(\"\");\n            require(sent, \"Failed to send Ether to recipient\");\n\n            emit TransferredToRecipient(amountToSend);\n        }\n    }\n\n    function getDonorsCount() public view returns (uint) {\n        return donors.length;\n    }\n\n    function getDonor(uint index) public view returns (address, uint) {\n        require(index < donors.length, \"Index out of bounds\");\n        Donor memory d = donors[index];\n        return (d.addr, d.amount);\n    }\n}\n",
  "sourcePath": "C:\\filefilean\\kuliah\\Semester4\\Blockchain\\Project_Web3\\Donasi\\truffle\\contracts\\Donation.sol",
  "compiler": {
    "name": "solc",
    "version": "0.8.18+commit.87f61d96.Emscripten.clang"
  },
  "schemaVersion": "3.4.16",
  "updatedAt": "2025-05-14T06:26:11.701Z",
  "networkType": "ethereum",
  "devdoc": {
    "kind": "dev",
    "methods": {},
    "version": 1
  },
  "userdoc": {
    "kind": "user",
    "methods": {},
    "version": 1
  }
}